:10031A000138000108000109000120000132000132
:10032A003300022300000230000002210000160AF6
:10033A002020202020205965732A2A4E6F2A2A4716
:10034A005F55507C7C000B253031323334353637DB
:0B035A003839000234000002360001B8
:1002CB00AE23AF247C007D0A1201758F38AE23AFAD
:1002DB00247C007D0A1201758D08AE30AF317C0095
:1002EB007D0A1201758F09AE30AF317C007D0A1289
:1002FB0001758D20AE21AF227C007D0A1201758F16
:0F030B0032AE21AF227C007D0A1201758D3322A4
:100276007F107E271202C07F107E271202C07F10D9
:100286007E271202C07F107E271202C07F107E27B3
:100296001202C07F107E271202C07F107E27120234
:1002A600C07F107E271202C07F107E271202C07FF9
:0A02B600107E271202C07F107E2781
:0B02C000EF1FAC0670011E4C70F62210
:1003E200C2A6C2A58F807F057E001202C0D2A77F5F
:0903F200057E001202C0C2A72220
:0303C600F8E6FF57
:1003C900D2A6C2A58F807F057E001202C0D2A77F68
:0903D900057E001202C0C2A72239
:1003FB00C2A77F381203E27F0C1203E27F061203BF
:06040B00E27F010203E2A2
:07042900D288D2A8D2AF2255
:03000300020200F6
:10020000C0E0C0D075D000C000C004C006C0077FE9
:10021000E87E031202C020B250753600753700D355
:10022000E5249531E5306480F8E523648098400743
:10023000C2A1120276D2A1C3E5249531E5306480D3
:10024000F8E523648098500AC2A01202761202BC1C
:10025000D2A0E52465317004E5236530700BC2A19E
:10026000C2A0120292D2A1D2A0D007D006D004D050
:0602700000D0D0D0E03206
:10000600E4F539F53A1204291203FB7F801203E264
:10001600E4F534F535740A25351203C67F057E00EE
:100026001202C00535E53570020534C39416E53471
:100036006480948040DF7F057E001202C0E537456C
:100046003670030200E820A2127F0A7E001202C068
:1000560030A2FD0524E5247002052320A3127F0AA1
:100066007E001202C030A3FD0531E5317002053075
:1000760020A4127F0A7E001202C030A4FD0522E5EC
:1000860022700205211202CB7FC01203E2742525DD
:10009600381203C67FC11203E274252508F8E6FF6D
:1000A6001203C97FC61203E274252509F8E6FF127A
:1000B60003C97FC71203E274252520F8E6FF120361
:1000C600C97FCA1203E274252532F8E6FF1203C976
:1000D6007FCB1203E274252533F8E6FF1203C9022B
:0200E6000043D5
:0100E80022F5
:10036600C2A18B807F017E0012038FD2A07F057E03
:100376000012038FC2A0EBC454F0F5807F017E000B
:0903860012038FD2A07F057E0056
:10038F00D3EF9400EE9400400F7DC77C01DCFEDDBF
:08039F00FAEF1F70EB1E80E86D
:0103A7002233
:0C041100AB07C2A0C2A2120366C2A02268
:0C041D00AB07C2A0D2A2120366C2A0224C
:1003A8007F321204117F281204117F0C1204117F6E
:0E03B800061204117F011204117F800204114D
:030000000200E912
:0C00E900787FE4F6D8FD75813A02013002
:10017500C2D5EC30E709B2D5E4C39DFDE49CFCEEA5
:1001850030E715B2D5E4C39FFFE49EFE1201ABC371
:10019500E49DFDE49CFC80031201AB30D507C3E46C
:0601A5009FFFE49EFE2214
:1000F500020006E493A3F8E493A34003F68001F21B
:1001050008DFF48029E493A3F85407240CC8C3330B
:10011500C4540F4420C8834004F456800146F6DFDA
:10012500E4800B010204081020408090031AE47E4D
:10013500019360BCA3FF543F30E509541FFEE493CF
:10014500A360010ECF54C025E060A840B8E493A396
:10015500FAE493A3F8E493A3C8C582C8CAC583CAC1
:10016500F0A3C8C582C8CAC583CADFE9DEE780BE79
:010365000097
:1001AB00BC000BBE0029EF8DF084FFADF022E4CC38
:1001BB00F875F008EF2FFFEE33FEEC33FCEE9DEC01
:1001CB00984005FCEE9DFE0FD5F0E9E4CEFD22ED47
:1001DB00F8F5F0EE8420D21CFEADF075F008EF2F91
:1001EB00FFED33FD4007985006D5F0F222C398FD82
:0501FB000FD5F0EA221F
:00000001FF
